{
  "address": "0x30B34F8900429e42287e243f3256669eC528F181",
  "abi": [
    {
      "inputs": [
        {
          "internalType": "address",
          "name": "gatewayTokenContract",
          "type": "address"
        },
        {
          "internalType": "uint256",
          "name": "gatekeeperNetwork",
          "type": "uint256"
        }
      ],
      "stateMutability": "nonpayable",
      "type": "constructor"
    },
    {
      "inputs": [
        {
          "internalType": "address",
          "name": "gatewayToken",
          "type": "address"
        }
      ],
      "name": "IsGated__InvalidGatewayToken",
      "type": "error"
    },
    {
      "anonymous": false,
      "inputs": [
        {
          "indexed": true,
          "internalType": "address",
          "name": "owner",
          "type": "address"
        },
        {
          "indexed": true,
          "internalType": "address",
          "name": "spender",
          "type": "address"
        },
        {
          "indexed": false,
          "internalType": "uint256",
          "name": "value",
          "type": "uint256"
        }
      ],
      "name": "Approval",
      "type": "event"
    },
    {
      "anonymous": false,
      "inputs": [
        {
          "indexed": true,
          "internalType": "address",
          "name": "from",
          "type": "address"
        },
        {
          "indexed": true,
          "internalType": "address",
          "name": "to",
          "type": "address"
        },
        {
          "indexed": false,
          "internalType": "uint256",
          "name": "value",
          "type": "uint256"
        }
      ],
      "name": "Transfer",
      "type": "event"
    },
    {
      "inputs": [
        {
          "internalType": "address",
          "name": "",
          "type": "address"
        },
        {
          "internalType": "address",
          "name": "",
          "type": "address"
        }
      ],
      "name": "allowance",
      "outputs": [
        {
          "internalType": "uint256",
          "name": "",
          "type": "uint256"
        }
      ],
      "stateMutability": "view",
      "type": "function"
    },
    {
      "inputs": [
        {
          "internalType": "address",
          "name": "spender",
          "type": "address"
        },
        {
          "internalType": "uint256",
          "name": "amount",
          "type": "uint256"
        }
      ],
      "name": "approve",
      "outputs": [
        {
          "internalType": "bool",
          "name": "",
          "type": "bool"
        }
      ],
      "stateMutability": "nonpayable",
      "type": "function"
    },
    {
      "inputs": [
        {
          "internalType": "address",
          "name": "",
          "type": "address"
        }
      ],
      "name": "balanceOf",
      "outputs": [
        {
          "internalType": "uint256",
          "name": "",
          "type": "uint256"
        }
      ],
      "stateMutability": "view",
      "type": "function"
    },
    {
      "inputs": [
        {
          "internalType": "uint256",
          "name": "amount",
          "type": "uint256"
        }
      ],
      "name": "burn",
      "outputs": [],
      "stateMutability": "nonpayable",
      "type": "function"
    },
    {
      "inputs": [],
      "name": "claim",
      "outputs": [],
      "stateMutability": "nonpayable",
      "type": "function"
    },
    {
      "inputs": [],
      "name": "decimals",
      "outputs": [
        {
          "internalType": "uint8",
          "name": "",
          "type": "uint8"
        }
      ],
      "stateMutability": "view",
      "type": "function"
    },
    {
      "inputs": [],
      "name": "name",
      "outputs": [
        {
          "internalType": "string",
          "name": "",
          "type": "string"
        }
      ],
      "stateMutability": "view",
      "type": "function"
    },
    {
      "inputs": [],
      "name": "symbol",
      "outputs": [
        {
          "internalType": "string",
          "name": "",
          "type": "string"
        }
      ],
      "stateMutability": "view",
      "type": "function"
    },
    {
      "inputs": [],
      "name": "totalSupply",
      "outputs": [
        {
          "internalType": "uint256",
          "name": "",
          "type": "uint256"
        }
      ],
      "stateMutability": "view",
      "type": "function"
    },
    {
      "inputs": [
        {
          "internalType": "address",
          "name": "recipient",
          "type": "address"
        },
        {
          "internalType": "uint256",
          "name": "amount",
          "type": "uint256"
        }
      ],
      "name": "transfer",
      "outputs": [
        {
          "internalType": "bool",
          "name": "",
          "type": "bool"
        }
      ],
      "stateMutability": "nonpayable",
      "type": "function"
    },
    {
      "inputs": [
        {
          "internalType": "address",
          "name": "sender",
          "type": "address"
        },
        {
          "internalType": "address",
          "name": "recipient",
          "type": "address"
        },
        {
          "internalType": "uint256",
          "name": "amount",
          "type": "uint256"
        }
      ],
      "name": "transferFrom",
      "outputs": [
        {
          "internalType": "bool",
          "name": "",
          "type": "bool"
        }
      ],
      "stateMutability": "nonpayable",
      "type": "function"
    }
  ],
  "transactionHash": "0xd097ffa16ec7ad80833e56955fc282109ba71028f2d7ac8f4dd4984a741f25c7",
  "args": [
    "0xF65b6396dF6B7e2D8a6270E3AB6c7BB08BAEF22E",
    11
  ],
  "numDeployments": 1,
  "solcInputHash": "0eda012603e7d006e65c7751fecf5585",
  "bytecode": "0x60806040526040518060400160405280600f81526020017f4d792073696d706c652045524332300000000000000000000000000000000000815250600590816200004a9190620003ae565b506040518060400160405280600581526020017f455243323000000000000000000000000000000000000000000000000000000081525060069081620000919190620003ae565b506012600760006101000a81548160ff021916908360ff160217905550348015620000bb57600080fd5b50604051620015e3380380620015e38339818101604052810190620000e1919062000530565b8181816000806101000a81548173ffffffffffffffffffffffffffffffffffffffff021916908373ffffffffffffffffffffffffffffffffffffffff160217905550806001819055505050505062000577565b600081519050919050565b7f4e487b7100000000000000000000000000000000000000000000000000000000600052604160045260246000fd5b7f4e487b7100000000000000000000000000000000000000000000000000000000600052602260045260246000fd5b60006002820490506001821680620001b657607f821691505b602082108103620001cc57620001cb6200016e565b5b50919050565b60008190508160005260206000209050919050565b60006020601f8301049050919050565b600082821b905092915050565b600060088302620002367fffffffffffffffffffffffffffffffffffffffffffffffffffffffffffffffff82620001f7565b620002428683620001f7565b95508019841693508086168417925050509392505050565b6000819050919050565b6000819050919050565b60006200028f6200028962000283846200025a565b62000264565b6200025a565b9050919050565b6000819050919050565b620002ab836200026e565b620002c3620002ba8262000296565b84845462000204565b825550505050565b600090565b620002da620002cb565b620002e7818484620002a0565b505050565b5b818110156200030f5762000303600082620002d0565b600181019050620002ed565b5050565b601f8211156200035e576200032881620001d2565b6200033384620001e7565b8101602085101562000343578190505b6200035b6200035285620001e7565b830182620002ec565b50505b505050565b600082821c905092915050565b6000620003836000198460080262000363565b1980831691505092915050565b60006200039e838362000370565b9150826002028217905092915050565b620003b98262000134565b67ffffffffffffffff811115620003d557620003d46200013f565b5b620003e182546200019d565b620003ee82828562000313565b600060209050601f83116001811462000426576000841562000411578287015190505b6200041d858262000390565b8655506200048d565b601f1984166200043686620001d2565b60005b82811015620004605784890151825560018201915060208501945060208101905062000439565b868310156200048057848901516200047c601f89168262000370565b8355505b6001600288020188555050505b505050505050565b600080fd5b600073ffffffffffffffffffffffffffffffffffffffff82169050919050565b6000620004c7826200049a565b9050919050565b620004d981620004ba565b8114620004e557600080fd5b50565b600081519050620004f981620004ce565b92915050565b6200050a816200025a565b81146200051657600080fd5b50565b6000815190506200052a81620004ff565b92915050565b600080604083850312156200054a576200054962000495565b5b60006200055a85828601620004e8565b92505060206200056d8582860162000519565b9150509250929050565b61105c80620005876000396000f3fe608060405234801561001057600080fd5b50600436106100a95760003560e01c806342966c681161007157806342966c68146101685780634e71d92d1461018457806370a082311461018e57806395d89b41146101be578063a9059cbb146101dc578063dd62ed3e1461020c576100a9565b806306fdde03146100ae578063095ea7b3146100cc57806318160ddd146100fc57806323b872dd1461011a578063313ce5671461014a575b600080fd5b6100b661023c565b6040516100c39190610b38565b60405180910390f35b6100e660048036038101906100e19190610bf3565b6102ca565b6040516100f39190610c4e565b60405180910390f35b6101046103bc565b6040516101119190610c78565b60405180910390f35b610134600480360381019061012f9190610c93565b6103c2565b6040516101419190610c4e565b60405180910390f35b610152610573565b60405161015f9190610d02565b60405180910390f35b610182600480360381019061017d9190610d1d565b610586565b005b61018c61065e565b005b6101a860048036038101906101a39190610d4a565b6108c0565b6040516101b59190610c78565b60405180910390f35b6101c66108d8565b6040516101d39190610b38565b60405180910390f35b6101f660048036038101906101f19190610bf3565b610966565b6040516102039190610c4e565b60405180910390f35b61022660048036038101906102219190610d77565b610a83565b6040516102339190610c78565b60405180910390f35b6005805461024990610de6565b80601f016020809104026020016040519081016040528092919081815260200182805461027590610de6565b80156102c25780601f10610297576101008083540402835291602001916102c2565b820191906000526020600020905b8154815290600101906020018083116102a557829003601f168201915b505050505081565b600081600460003373ffffffffffffffffffffffffffffffffffffffff1673ffffffffffffffffffffffffffffffffffffffff16815260200190815260200160002060008573ffffffffffffffffffffffffffffffffffffffff1673ffffffffffffffffffffffffffffffffffffffff168152602001908152602001600020819055508273ffffffffffffffffffffffffffffffffffffffff163373ffffffffffffffffffffffffffffffffffffffff167f8c5be1e5ebec7d5bd14f71427d1e84f3dd0314c0f7b2291e5b200ac8c7c3b925846040516103aa9190610c78565b60405180910390a36001905092915050565b60025481565b600081600460008673ffffffffffffffffffffffffffffffffffffffff1673ffffffffffffffffffffffffffffffffffffffff16815260200190815260200160002060003373ffffffffffffffffffffffffffffffffffffffff1673ffffffffffffffffffffffffffffffffffffffff16815260200190815260200160002060008282546104509190610e46565b9250508190555081600360008673ffffffffffffffffffffffffffffffffffffffff1673ffffffffffffffffffffffffffffffffffffffff16815260200190815260200160002060008282546104a69190610e46565b9250508190555081600360008573ffffffffffffffffffffffffffffffffffffffff1673ffffffffffffffffffffffffffffffffffffffff16815260200190815260200160002060008282546104fc9190610e7a565b925050819055508273ffffffffffffffffffffffffffffffffffffffff168473ffffffffffffffffffffffffffffffffffffffff167fddf252ad1be2c89b69c2b068fc378daa952ba7f163c4a11628f55a4df523b3ef846040516105609190610c78565b60405180910390a3600190509392505050565b600760009054906101000a900460ff1681565b80600360003373ffffffffffffffffffffffffffffffffffffffff1673ffffffffffffffffffffffffffffffffffffffff16815260200190815260200160002060008282546105d59190610e46565b9250508190555080600260008282546105ee9190610e46565b92505081905550600073ffffffffffffffffffffffffffffffffffffffff163373ffffffffffffffffffffffffffffffffffffffff167fddf252ad1be2c89b69c2b068fc378daa952ba7f163c4a11628f55a4df523b3ef836040516106539190610c78565b60405180910390a350565b60008060009054906101000a900473ffffffffffffffffffffffffffffffffffffffff1690508073ffffffffffffffffffffffffffffffffffffffff1663ff17e232336001546040518363ffffffff1660e01b81526004016106c1929190610ebd565b602060405180830381865afa1580156106de573d6000803e3d6000fd5b505050506040513d601f19601f820116820180604052508101906107029190610f12565b6107635760008054906101000a900473ffffffffffffffffffffffffffffffffffffffff166040517fabd937f600000000000000000000000000000000000000000000000000000000815260040161075a9190610f3f565b60405180910390fd5b6000600360003373ffffffffffffffffffffffffffffffffffffffff1673ffffffffffffffffffffffffffffffffffffffff16815260200190815260200160002054146107e5576040517f08c379a00000000000000000000000000000000000000000000000000000000081526004016107dc90610fa6565b60405180910390fd5b6001600360003373ffffffffffffffffffffffffffffffffffffffff1673ffffffffffffffffffffffffffffffffffffffff16815260200190815260200160002060008282546108359190610e7a565b9250508190555060016002600082825461084f9190610e7a565b925050819055503373ffffffffffffffffffffffffffffffffffffffff16600073ffffffffffffffffffffffffffffffffffffffff167fddf252ad1be2c89b69c2b068fc378daa952ba7f163c4a11628f55a4df523b3ef60016040516108b5919061100b565b60405180910390a350565b60036020528060005260406000206000915090505481565b600680546108e590610de6565b80601f016020809104026020016040519081016040528092919081815260200182805461091190610de6565b801561095e5780601f106109335761010080835404028352916020019161095e565b820191906000526020600020905b81548152906001019060200180831161094157829003601f168201915b505050505081565b600081600360003373ffffffffffffffffffffffffffffffffffffffff1673ffffffffffffffffffffffffffffffffffffffff16815260200190815260200160002060008282546109b79190610e46565b9250508190555081600360008573ffffffffffffffffffffffffffffffffffffffff1673ffffffffffffffffffffffffffffffffffffffff1681526020019081526020016000206000828254610a0d9190610e7a565b925050819055508273ffffffffffffffffffffffffffffffffffffffff163373ffffffffffffffffffffffffffffffffffffffff167fddf252ad1be2c89b69c2b068fc378daa952ba7f163c4a11628f55a4df523b3ef84604051610a719190610c78565b60405180910390a36001905092915050565b6004602052816000526040600020602052806000526040600020600091509150505481565b600081519050919050565b600082825260208201905092915050565b60005b83811015610ae2578082015181840152602081019050610ac7565b60008484015250505050565b6000601f19601f8301169050919050565b6000610b0a82610aa8565b610b148185610ab3565b9350610b24818560208601610ac4565b610b2d81610aee565b840191505092915050565b60006020820190508181036000830152610b528184610aff565b905092915050565b600080fd5b600073ffffffffffffffffffffffffffffffffffffffff82169050919050565b6000610b8a82610b5f565b9050919050565b610b9a81610b7f565b8114610ba557600080fd5b50565b600081359050610bb781610b91565b92915050565b6000819050919050565b610bd081610bbd565b8114610bdb57600080fd5b50565b600081359050610bed81610bc7565b92915050565b60008060408385031215610c0a57610c09610b5a565b5b6000610c1885828601610ba8565b9250506020610c2985828601610bde565b9150509250929050565b60008115159050919050565b610c4881610c33565b82525050565b6000602082019050610c636000830184610c3f565b92915050565b610c7281610bbd565b82525050565b6000602082019050610c8d6000830184610c69565b92915050565b600080600060608486031215610cac57610cab610b5a565b5b6000610cba86828701610ba8565b9350506020610ccb86828701610ba8565b9250506040610cdc86828701610bde565b9150509250925092565b600060ff82169050919050565b610cfc81610ce6565b82525050565b6000602082019050610d176000830184610cf3565b92915050565b600060208284031215610d3357610d32610b5a565b5b6000610d4184828501610bde565b91505092915050565b600060208284031215610d6057610d5f610b5a565b5b6000610d6e84828501610ba8565b91505092915050565b60008060408385031215610d8e57610d8d610b5a565b5b6000610d9c85828601610ba8565b9250506020610dad85828601610ba8565b9150509250929050565b7f4e487b7100000000000000000000000000000000000000000000000000000000600052602260045260246000fd5b60006002820490506001821680610dfe57607f821691505b602082108103610e1157610e10610db7565b5b50919050565b7f4e487b7100000000000000000000000000000000000000000000000000000000600052601160045260246000fd5b6000610e5182610bbd565b9150610e5c83610bbd565b9250828203905081811115610e7457610e73610e17565b5b92915050565b6000610e8582610bbd565b9150610e9083610bbd565b9250828201905080821115610ea857610ea7610e17565b5b92915050565b610eb781610b7f565b82525050565b6000604082019050610ed26000830185610eae565b610edf6020830184610c69565b9392505050565b610eef81610c33565b8114610efa57600080fd5b50565b600081519050610f0c81610ee6565b92915050565b600060208284031215610f2857610f27610b5a565b5b6000610f3684828501610efd565b91505092915050565b6000602082019050610f546000830184610eae565b92915050565b7f596f7520616c726561647920636c61696d656420796f757220746f6b656e7300600082015250565b6000610f90601f83610ab3565b9150610f9b82610f5a565b602082019050919050565b60006020820190508181036000830152610fbf81610f83565b9050919050565b6000819050919050565b6000819050919050565b6000610ff5610ff0610feb84610fc6565b610fd0565b610bbd565b9050919050565b61100581610fda565b82525050565b60006020820190506110206000830184610ffc565b9291505056fea26469706673582212204be5cca3e20294be84c61258744dd8e2a059df4457de3991a6fff3919e72565764736f6c63430008140033",
  "devdoc": {
    "kind": "dev",
    "methods": {},
    "version": 1
  },
  "userdoc": {
    "errors": {
      "IsGated__InvalidGatewayToken(address)": [
        {
          "notice": "The gateway token is not valid."
        }
      ]
    },
    "kind": "user",
    "methods": {},
    "version": 1
  },
  "storageLayout": {
    "storage": [
      {
        "astId": 5,
        "contract": "contracts/Airdrop.sol:Airdrop",
        "label": "_gatewayTokenContract",
        "offset": 0,
        "slot": "0",
        "type": "t_address"
      },
      {
        "astId": 7,
        "contract": "contracts/Airdrop.sol:Airdrop",
        "label": "_gatekeeperNetwork",
        "offset": 0,
        "slot": "1",
        "type": "t_uint256"
      },
      {
        "astId": 84,
        "contract": "contracts/Airdrop.sol:Airdrop",
        "label": "totalSupply",
        "offset": 0,
        "slot": "2",
        "type": "t_uint256"
      },
      {
        "astId": 88,
        "contract": "contracts/Airdrop.sol:Airdrop",
        "label": "balanceOf",
        "offset": 0,
        "slot": "3",
        "type": "t_mapping(t_address,t_uint256)"
      },
      {
        "astId": 94,
        "contract": "contracts/Airdrop.sol:Airdrop",
        "label": "allowance",
        "offset": 0,
        "slot": "4",
        "type": "t_mapping(t_address,t_mapping(t_address,t_uint256))"
      },
      {
        "astId": 97,
        "contract": "contracts/Airdrop.sol:Airdrop",
        "label": "name",
        "offset": 0,
        "slot": "5",
        "type": "t_string_storage"
      },
      {
        "astId": 100,
        "contract": "contracts/Airdrop.sol:Airdrop",
        "label": "symbol",
        "offset": 0,
        "slot": "6",
        "type": "t_string_storage"
      },
      {
        "astId": 103,
        "contract": "contracts/Airdrop.sol:Airdrop",
        "label": "decimals",
        "offset": 0,
        "slot": "7",
        "type": "t_uint8"
      }
    ],
    "types": {
      "t_address": {
        "encoding": "inplace",
        "label": "address",
        "numberOfBytes": "20"
      },
      "t_mapping(t_address,t_mapping(t_address,t_uint256))": {
        "encoding": "mapping",
        "key": "t_address",
        "label": "mapping(address => mapping(address => uint256))",
        "numberOfBytes": "32",
        "value": "t_mapping(t_address,t_uint256)"
      },
      "t_mapping(t_address,t_uint256)": {
        "encoding": "mapping",
        "key": "t_address",
        "label": "mapping(address => uint256)",
        "numberOfBytes": "32",
        "value": "t_uint256"
      },
      "t_string_storage": {
        "encoding": "bytes",
        "label": "string",
        "numberOfBytes": "32"
      },
      "t_uint256": {
        "encoding": "inplace",
        "label": "uint256",
        "numberOfBytes": "32"
      },
      "t_uint8": {
        "encoding": "inplace",
        "label": "uint8",
        "numberOfBytes": "1"
      }
    }
  }
}